:020000040800F2
:1000000098530020810200089143000859360008E7
:100010008D430008730A00088D4E000800000000A0
:10002000000000000000000000000000C501000802
:100030002F0E000800000000190200080745000804
:100040009B0200089B0200089B0200089B0200081C
:100050009B0200089B0200089B0200089B0200080C
:100060009B0200089B0200089B0200089B020008FC
:10007000D50C00089B0200089B0200089B020008A8
:10008000E50C00089B0200089B020008890A000892
:10009000790A00089B0200089B0200089B020008E6
:1000A0009B0200089B0200089B0200089B020008BC
:1000B0009B0200089B0200089B0200089B020008AC
:1000C0009B0200089B0200089B0200089B0200089C
:1000D0009B020008494E00085D4E00086D4E000866
:1000E0009B0200089B0200089B0200089B0200087C
:1000F0009B0200089B0200089B0200089B0200086C
:100100009B0200089B0200089B0200089B0200085B
:100110009B0200089B020008414600089B02000861
:100120009B020008F50C0008050D00089B02000862
:100130009B0200089B0200089B020008A90A000815
:10014000990A00089B0200089B0200089B02000815
:100150009B0200089B0200089B0200087D4E0008DD
:100160009B0200089B0200089B0200089B020008FB
:100170009B0200089B0200089B0200080000000090
:100180009B0200089B0200089B020008F54800083B
:100190009B0200089B0200089B0200089B020008CB
:1001A00000000000000000009B020008DFF810D0F3
:1001B00000F012FC0048004799770008AFF3008078
:1001C000985300202B4B19680868B0E8F04F80F373
:1001D0000988BFF36F8F4FF0000080F311887047DC
:1001E0000000000006480068006880F3088862B6D6
:1001F00061B6BFF34F8FBFF36F8F00DF00BF00BF4B
:1002000008ED00E0DFF80C00016841F470010160C6
:10021000704700BF88ED00E0EFF30980BFF36F8FF8
:10022000144B1A681EF0100F08BF20ED108A20E949
:10023000F04F106008B44FF0500080F31188BFF306
:100240004F8FBFF36F8F09F0DDFA4FF0000080F39E
:10025000118808BC19680868B0E8F04F1EF0100F4C
:1002600008BFB0EC108A80F30988BFF36F8F704726
:1002700000BF00BF08000020EFF3058070470000BA
:100280000648804706480047FEE7FEE7FEE7FEE730
:10029000FEE7FEE7FEE7FEE7FEE7FEE7DD450008D6
:1002A000AD0100089FED1A1AF5EE000A40EE010AB2
:1002B000BDEEE00AF5EEC00A10EE100AF1EE10FAFB
:1002C00038BF401E00EE100A1349F7EE001AB8EED0
:1002D000C00A30EEC00ADFED0F0A20EE200AFCEE65
:1002E000C00A10EE900AC0F3080000EE900A01EB7D
:1002F0008000F8EE600A90ED011A70EE600A90ED51
:10030000000A71EEE01A21EE800A00EE810A7047C1
:1003100083F9223E0000004478A40008DFED190AAA
:10032000B5EEC00A60EE200ABDEEE01A11EE100A2A
:10033000F1EE10FA38BF401E00EE100A1349F7EE36
:10034000001AB8EEC00A30EEC00ADFED0F0A60EE08
:10035000200ABCEEE00A10EE100AC0F3080000EE1E
:10036000100A01EB8000B8EE400A90ED011A70EE21
:10037000C00A90ED000A71EEE01A21EE800A00EE4C
:10038000810A704783F9223E0000004478A40008E7
:1003900040EA01039B0703D009E008C9121F08C007
:1003A000042AFAD203E011F8013B00F8013B521E87
:1003B000F9D27047D2B201E000F8012B491EFBD2FE
:1003C00070470022F6E710B513460A460446194660
:1003D000FFF7F0FF204610BD2DE9FE4F804681EA71
:1003E0000300C00F0C46009021F0004123F00045AF
:1003F000B8EB0200A94105D24046214690461C4672
:100400000B46024623F00040104347D0270DC7F3A8
:100410000A00C3F30A510290401A019040286BDA97
:10042000C3F3130040F4801B0098924620B10023D0
:10043000D2EB030A63EB0B0B01985946C0F1400263
:10044000504600F053F906460D4650465946019A6B
:1004500000F05BF910EB08006141002487EA1152BB
:1004600084EAE7731A4340D0009A62B3019A012AE2
:100470004FEA075215DC001B61EB02014FF000420E
:1004800002EA0752CDE90042001C41F580113246D4
:100490002B4600F092F903B0BDE8F08F40462146AC
:1004A000F9E7001B61EB0201001C41F58013001805
:1004B0005B412018A2F5001747EB030140EAD57015
:1004C000B6196D4111E06D084FEA360645EAC07570
:1004D0004FEA0752001B61EB0201001C41F580113D
:1004E00049084FEA30000019514132462B4603B00B
:1004F000BDE8F04F00F052B90098012240000023FF
:10050000D0EB020263EBE073009821464FEAE074FF
:10051000B8EB000061EB0401E9E783F000435BE71F
:1005200081F0004158E72DE9FE4F81EA030404F011
:10053000004421F0004100944FF0000B23F00043F1
:1005400050EA01045ED052EA03045BD0C3F30A54BC
:10055000C1F30A552C44A4F2F3340194A0FB0254D5
:10056000C1F3130141F48011C3F3130343F4801367
:1005700001FB024400FB034E840A970A44EA8154BB
:1005800047EA8357A4FB076802958D0A05FB078598
:100590004FEA932C04FB0C542705029D4FEA0658A2
:1005A00047EA1637B5EB08056EEB070C870E920E7F
:1005B00047EA811742EA8312A7FB0201B6EB0B015F
:1005C00064EB00042B0D43EA0C335E1844EB1C5023
:1005D000DA465146E7FB0201C5F313044FEA0B3339
:1005E00043EA14534FEA0432019C43EA0603A4F1A0
:1005F0000C040294009CCDE900B400F0DEF803B0D6
:10060000BDE8F08F00200146F9E70EB5C10F80EA82
:10061000E0700844CA07002140F233438DE80E0021
:100620000A460B4600F0C9F803B000BD00F00042D6
:1006300030F000400AD0C10D01F56071C0F3160022
:1006400042EA0151C20840071143704700200146A9
:100650007047000030B5041E71F1000404DB4FF058
:100660000044404264EB0101141E73F1000405DBF9
:100670001C464FF00043524263EB04038B4208BF19
:10068000824230BD30B5041E71F1000404DB4FF02E
:100690000044404264EB0101141E73F1000405DBC9
:1006A0001C464FF00043524263EB0403994208BFDB
:1006B000904230BD01F0004330B421F0004150EAD7
:1006C000010206D00A0DA2F56072C1F31301002ADF
:1006D00002DC30BC00207047440F44EAC104C10072
:1006E000E01830BC00EBC25000F021B8202A04DB37
:1006F000203A00FA02F1002070479140C2F1200335
:1007000020FA03F3194390407047202A06DBCB17E9
:10071000203A41FA02F043EAE07306E041FA02F3BC
:10072000D040C2F120029140084319467047002989
:10073000A8BF7047401C490008BF20F00100704767
:1007400010B4B0FA80FC00FA0CF050EA010404BFC7
:1007500010BC704749B1CCF1200421FA04F411FA1D
:100760000CF118BF012121430843A3EB0C01CB1D61
:100770004FEA00614FEA102042BF002010BC7047D2
:1007800000EBC35010440029A4BF10BC7047401CAC
:10079000490008BF20F0010010BC704710B5141EBE
:1007A00073F1000408DA401C41F1000192185B412A
:1007B0001A4301D120F0010010BD2DE9F04D924601
:1007C0009B4611B1B1FA81F202E0B0FA80F2203218
:1007D0009046FFF78BFF04460F4640EA0A0041EAC5
:1007E0000B0153465A46084313D0114653EA010001
:1007F00019D0C8F14002504600F000F905460E46F7
:10080000504659464246FFF771FF084305D0012084
:1008100004E020463946BDE8F08D0020054346EA55
:10082000E0762C4337430A986305E40AA0EB0800FE
:100830000022FD0A44EA47540A3002D5002001464E
:10084000E9E7010510196941DDE908450019694129
:10085000BDE8F04DA2E72DE9F04D81EA030404F074
:10086000004B21F0004514464FF0000A23F00041F0
:1008700050EA050220D054EA01021DD0C5F30A5700
:100880000246C5F31303C1F31300C1F30A5640F443
:10089000801543F48013A7EB0608101BD64608F218
:1008A000FD3873EB050002D308F1010801E092184E
:1008B0005B41B8F1000F03DA00200146BDE8F08D7E
:1008C00000204FF48011064684460EE0171B73EBA0
:1008D000050705D3121B63EB050306434CEA010C25
:1008E00049084FEA300092185B4150EA0107EDD108
:1008F00052EA030012D082EA040083EA05010843A9
:1009000005D0101BAB4106D20122002306E00022D5
:100910004FF0004302E06FF0010253101AEB0600A3
:100920004CEB085110EB0A0041EB0B01BDE8F04D18
:10093000FFF734BF2DE9F04D00231A461B1A8A41F8
:1009400003DB00200146BDE8F08DC1F30A52C1F37C
:10095000130141F480154FF0000BD10702D10018AC
:100960006D41521E0027044640F2FF11384601EB4C
:10097000620A3E468046024600204FF4801100F095
:100980003DF8C2197141BB1846EB0100B4EB030CF2
:1009900075EB000C04D3E41A65EB000517460E4610
:1009A000241908F101006D4180463428E3DDF9196E
:1009B00046EB0600091BA84103D24FF0FF32134655
:1009C00001E0002213461BEB070046EB0A51BDE88D
:1009D000F04DFFF7E3BE0000064C074D06E0E0686F
:1009E00040F0010394E8070098471034AC42F6D376
:1009F000FFF7E0FB10AE000830AE0008202A04DB51
:100A0000203A21FA02F00021704721FA02F3D04087
:100A1000C2F12002914008431946704770B58C1806
:100A200010F8015B15F0070301D110F8013B2A1102
:100A300006D110F8012B03E010F8016B01F8016BEF
:100A40005B1EF9D12B0705D40023521E0DD401F8EB
:100A5000013BFAE710F8013BCB1A921C03E013F8B4
:100A6000015B01F8015B521EF9D5A142D8D30020E9
:100A700070BD00BFFEE7000010B5024800F072FA3A
:100A800010BD0000C444002010B5024800F06AFA0E
:100A900010BD0000C444002010B5024800F062FA06
:100AA00010BD00000445002010B5024800F05AFABD
:100AB00010BD00000445002070B504460D462068B6
:100AC00000F5D87000EB0510006800F00400616BC1
:100AD0008860606B806860B9206800F5D87000EBB2
:100AE0000510006840F2FF7101EA5050616B086028
:100AF0000BE0206800F5D87000EB051000686FF07F
:100B0000604101EAD000616B4860206800F5D87050
:100B100000EB0510006800F00200616BC8602068FF
:100B200000F5D87000EB0510406800F00F00616B15
:100B30000861206800F5D87000EB05104068C0F32C
:100B40000720616BC861206800F5D87000EB0510C4
:100B50008068616B0875206800F5D87000EB05109F
:100B60008068010A606B4175206800F5D87000EB61
:100B700005108068010C606B8175206800F5D870E5
:100B800000EB05108068000E616BC875206800F5E9
:100B9000D87000EB0510C068C1B2606B01762068A8
:100BA00000F5D87000EB0510C068010A606B417653
:100BB000206800F5D87000EB0510C068010C606B70
:100BC0008176206800F5D87000EB0510C068000E33
:100BD000616BC8764DB920202168C86020684069E3
:100BE00020F002002168486108E0202021680861A7
:100BF0002068406920F010002168486194F83800AE
:100C000022281DD12068406920F480702168486145
:100C10002068406920F400702168486120684069BC
:100C200020F48060216848612068406920F40060F9
:100C3000216848612068406920F4004021684861CB
:100C400094F83800322803D1122084F8380002E0EA
:100C5000012084F83800204600F03CFC002070BDE4
:100C600010B504462068406920F001002168486101
:100C700094F8380012281DD12068406920F4807053
:100C8000216848612068406920F40070216848614B
:100C90002068406920F480602168486120684069CC
:100CA00020F40060216848612068406920F4004019
:100CB0002168486194F83800322803D1222084F852
:100CC000380002E0012084F83800204600F0A8FD3A
:100CD000002010BD10B5024800F0B8FD10BD0000A6
:100CE000E841002010B5024800F0B0FD10BD000042
:100CF0008841002010B5024800F0A8FD10BD00009A
:100D00004842002010B5024800F0A0FD10BD0000D0
:100D1000284100200146087810381823B0FBF3F270
:100D20000848805CC865032A05D908686FF3090084
:100D3000001D886503E008686FF309008865886D09
:100D40007047000084A30008014600208A6A8B696E
:100D500003BB32B1012A0CD0022A10D0032A17D1CA
:100D600015E0CB6A03F08073B3F1807F00D10120DE
:100D70000FE0CB6AB3F1C07F00D1012009E0CB6A5C
:100D800003F08073B3F1807F00D1012001E000E027
:100D900000BF35E08B69B3F5005F1BD132B1012A8A
:100DA00006D0022A0CD0032A12D10BE0012010E059
:100DB000CB6A03F08073B3F1807F00D1012008E09B
:100DC000012006E0CB6AB3F1C07F00D1012000E032
:100DD00000BF15E032B1012A05D0022A04D0032A4F
:100DE0000CD103E000BF00BF012008E0CB6A03F094
:100DF0008073B3F1807F00D1012000E000BF00BF0D
:100E0000704730B50468246824F4802405682C6099
:100E1000046863608468402C04D10468A26004689C
:100E2000E16003E00468A1600468E26030BD7047DF
:100E300000BFFEE730B5034600220C7D012000FA1A
:100E400004F24648006840F00100444C206020460F
:100E5000006820F47C502060204600684C6A40EA1C
:100E600004203E4C20603D481C30006890433B4CC1
:100E70001C342060C869D8B938480C3000689043E9
:100E8000364C0C342060888880B28C8940EA044457
:100E9000324840304D6940F83540088880B20C89AE
:100EA00040EA04442D4840304D6900EBC5004460E1
:100EB000C86901281BD129480C3000681043274C11
:100EC0000C342060888880B20C8840EA04442348AF
:100ED00040304D6940F83540888980B20C8940EA3D
:100EE00004441E4840304D6900EBC50044608869E9
:100EF00038B91A48001D00689043184C241D206022
:100F000006E01648001D00681043144C241D2060A4
:100F1000086930B911481430006890430F4C1434FC
:100F200020600869012806D10C481430006810437D
:100F30000A4C14342060086A012806D107481C3086
:100F400000681043054C1C3420600448006820F001
:100F50000100024C2060002030BD0000006600400F
:100F6000704700002DE9F0410446002500260027C7
:100F70002068406900F0010018B320688068694962
:100F80000840884201D1012000E000200546206889
:100F9000806865490840884201D1012000E00020B6
:100FA00006462068806861490840884201D10120D6
:100FB00000E0002007460DB906B917B12046FFF73B
:100FC0004FFE2068C06800F0030520684069C0F348
:100FD000400625B11EB100212046FFF76DFD2068B7
:100FE000006900F0030520684069C0F3001625B1D0
:100FF0001EB101212046FFF75FFD2068806900F0E7
:10100000010520684069C0F3002620684069C0F3EC
:10101000C0372DB126B11FB1E06B40F00100E06395
:1010200020688069C0F3400520684069C0F340260D
:1010300020684069C0F3C0372DB126B11FB1E06B05
:1010400040F00200E06320688069C0F380052068FA
:101050004069C0F3802620684069C0F3C0372DB1D5
:1010600026B11FB1E06B40F00400E06320688069A6
:1010700000F0700008B9012000E00020054620685B
:101080004069C0F3C02620684069C0F3C03795BBF3
:101090008EB387B32068806900F07005402D1BD0A7
:1010A00006DC102D09D0202D0CD0302D24D10EE0DF
:1010B000502D16D0602D1FD118E0E06B40F00800D5
:1010C000E0631AE0E06B40F01000E06315E0E06BD5
:1010D00040F02000E06310E0E06B40F04000E0638F
:1010E0000BE0E06B40F08000E06306E0E06B40F472
:1010F0008070E06301E007E000BF00BF2068806906
:1011000020F0700021688861E06B40B10420216804
:101110004860012084F838002046FFF721FFBDE831
:10112000F081000003000004000300080000031029
:1011300070B50446032600250CB9012070BD94F853
:10114000380028B9002084F83900204600F0D0F893
:10115000022084F838002068006820F0020021682E
:1011600008602068006840F001002168086000F015
:1011700059FE05460EE000F055FE401B0A2809D92D
:10118000032084F8380000BF002084F8390000BF35
:101190000320D3E72068406800F001000028EAD06F
:1011A0002068406800F0010008B9002692E0A069BC
:1011B000012806D12068006840F08000216808609E
:1011C00005E02068006820F0800021680860E06980
:1011D000012806D12068006840F0400021680860BE
:1011E00005E02068006820F0400021680860206A5F
:1011F000012806D12068006840F0200021680860BE
:1012000005E02068006820F0200021680860606A1E
:10121000012806D12068006840F0100021680860AD
:1012200005E02068006820F0100021680860A06ACE
:10123000012806D12068006840F008002168086095
:1012400005E02068006820F0080021680860E06A76
:10125000012806D12068006840F004002168086079
:1012600005E02068006820F0040021680860D4E9E7
:101270000201084321690843616908436168491E06
:1012800008432168C8612068006820F001002168D7
:10129000086000F0C7FD05460EE000F0C3FD401BEE
:1012A0000A2809D9032084F8380000BF002084F8F8
:1012B000390000BF032041E72068406800F00100CA
:1012C0000028EAD12068406800F0010008B100263B
:1012D00000E00126012E06D10020E063012084F801
:1012E000380000202AE7042084F83800012025E790
:1012F00010B586B0044645492068884237D1444835
:101300000068401C424908600846006801280FD167
:1013100000BF002000903F48006840F000703D4949
:1013200008600846006800F00070009000BF00BF31
:1013300003200190022002900020039003200490DB
:101340000920059001A9344800F058FC002205212D
:10135000132000F011FE132000F001FE00220521F1
:10136000142000F009FE142000F0F9FD4BE02B4999
:101370002068884247D100BF0020009025480068BF
:1013800040F08060234908600846006800F08060F3
:10139000009000BF00BF1E480068401C1C49086048
:1013A0000846006801280FD100BF002000901948AE
:1013B000006840F00070174908600846006800F0B7
:1013C0000070009000BF00BF4FF440500190022019
:1013D000029000200390032004900920059001A9A9
:1013E0000F4800F00BFC002211463F2000F0C4FD26
:1013F0003F2000F0B4FD00221146402000F0BCFD6B
:10140000402000F0ACFD06B010BD000000640040BC
:101410001801002040380240000C024000680040E3
:101420000004024010B50246002392F83830012B28
:1014300001D0122B49D100BF92F83900012801D107
:10144000022010BD012082F8390000BF92F8380058
:10145000122803D1322082F8380002E0222082F8DC
:1014600038000020D0631068406940F48070146830
:1014700060611068406940F4007014686061106831
:10148000406940F48060146860611068406940F40D
:101490000060146860611068406940F4004014689E
:1014A000606100BF002082F8390000BF31B91068C8
:1014B000406940F002001468606108E0106840690B
:1014C00040F010001468606101E00220B9E70020DC
:1014D000B7E7000010B50446606B0068A0F2012079
:1014E000082850D2DFE800F00405060708090A0BB7
:1014F00000BF00BF00BF00BF00BF00BF00BF606BE8
:101500000078401E294908700846007800EB40002A
:10151000274901EB0010816A2448007800EB400065
:10152000234A02EB0010806A401C204A127802EB2A
:1015300042021F4B03EB0212906232290AD81B4968
:10154000097801EB41011A4602EB0110214605F032
:10155000EDF909E01549097801EB4101144A02EB64
:101560000110214605F098F92146124805F094F93A
:101570000E49097801EB41010D4A02EB01102146A9
:1015800005F08AF900BF00BF0B480068406940F0D1
:10159000020009490968486108480068406940F04C
:1015A000020006490968486110BD000020010020C2
:1015B00044450020C4460020C444002004450020C7
:1015C0002DE9F04104460E46052500272068806875
:1015D00000F08060B0F1806F0DD02068806800F06E
:1015E0000060B0F1006F06D02068806800F0805085
:1015F000B0F1805F7ED100BF94F83900012802D19C
:101600000220BDE8F081012084F8390000BF94F881
:101610003800222803D1322084F8380002E012205A
:1016200084F838002068806800F08060B0F1806F36
:1016300001D1002509E02068806800F00060B0F169
:10164000006F01D1012500E00225206800F5C0707F
:1016500000EB0510006800F00101206800F5C07083
:1016600000EB05100160206B806898B9206800F5D8
:10167000C07000EB05100068216BC968226B1288EE
:1016800041EA42510843216801F5C07101EB05119F
:10169000086015E0206800F5C07000EB05100068D8
:1016A000216B8968226B526841EAC201226BD268C1
:1016B00011430843216801F5C07101EB0511086071
:1016C000206B007C00F00F00216B0861206800F5A2
:1016D000C07000EB0510406820F00F01206800F595
:1016E000C07000EB05104160206800F5C07000EB91
:1016F000051000E088E04068216B09690843216813
:1017000001F5C07101EB05114860206BC07D010639
:10171000206B807D41EA0041206B407D41EA002042
:10172000216B097D0843216801F5C07101EB0511AA
:101730008860206BC07E0106206B807E41EA0041FC
:10174000206B407E41EA0020216B097E084321681E
:1017500001F5C07101EB0511C860206800F5C0708B
:1017600000EB0510006840F00101206800F5C07032
:1017700000EB0510016000F055FB074611E0701CFE
:1017800078B126B100F04EFBC01BB04209D903204E
:1017900084F8380000BF002084F8390000BF03201F
:1017A0002FE74DB9206880681A490840884201D166
:1017B000012016E0002014E0012D09D12068806886
:1017C00015490840884201D101200AE0002008E0C4
:1017D0002068806811490840884201D1012000E05A
:1017E00000200028CBD094F83800322803D12220E2
:1017F00084F8380002E0012084F8380000BF00209F
:1018000084F8390000BFFCE6042084F83800012089
:10181000F7E60000030000040003000800000310C6
:101820007047014691F83500022803D080204865B2
:1018300001207047052081F835000868006820F015
:1018400001000A6810600020F3E70000F8B50446C4
:10185000002000908D4800684FF41651B0FBF1F75E
:10186000A56D2E6894F85C1008208840304098B12F
:101870002068006800F0040070B12068006820F063
:1018800004002168086094F85C1008208840A86073
:10189000606D40F00100606594F85C107C48884001
:1018A000304068B12068406900F0800040B194F891
:1018B0005C1077488840A860606D40F00200606569
:1018C00094F85C107248C01C8840304070B12068A9
:1018D000006800F0020048B194F85C106C48C01C2D
:1018E0008840A860606D40F00400606594F85C106A
:1018F00010208840304078B32068006800F008006D
:1019000050B394F85C1010208840A86020680068EC
:1019100000F4802080B12068006800F4002028B91D
:10192000206CC8B12046216C884715E0A06C98B1A6
:101930002046A16C88470FE02068006800F48070A2
:1019400028B92068006820F0080021680860206C31
:1019500010B12046216C884794F85C102020884004
:101960003040002865D02068006800F01000002892
:101970005FD094F85C1020208840A86094F835006F
:10198000052828D12068006820F01600216808602A
:101990002068406920F0800021684861206C08B907
:1019A000A06C28B12068006820F008002168086059
:1019B00094F85C103F208840A86000BF002084F8A5
:1019C000340000BF012084F83500206D10B120469E
:1019D000216D8847F8BD2068006800F4802080B140
:1019E0002068006800F4002028B9606C10B120461F
:1019F000616C88471DE0E06BD8B12046E16B8847F9
:101A000017E02068006800F4807068B920680068FA
:101A100020F010002168086000BF002084F8340026
:101A200000BF012084F83500E06B10B12046E16B67
:101A30008847606D38B3606D00F00100F0B105209B
:101A400084F835002068006820F0010021680860F3
:101A500000BF0098401C0090B84200D905E0206803
:101A6000006800F001000028F3D100BF00BF002093
:101A700084F8340000BF012084F83500E06C10B118
:101A80002046E16C884700BFA4E700000400002066
:101A9000010080002DE9F0410446002500F0C2F964
:101AA000074614B90120BDE8F081606A00B100BFAB
:101AB00000BF002084F8340000BF022084F8350005
:101AC0002068006820F00100216808600AE000F04A
:101AD000A9F9C01B052805D920206065032084F8DA
:101AE0003500E0E72068006800F001000028EED132
:101AF0002068056820480540D4E901010843E168F1
:101B000008432169084361690843A1690843E16901
:101B10000843216A08430543606A042803D1D4E9D5
:101B20000B0108430543206805602068456925F0DE
:101B30000705606A0543606A04280BD1A06A054363
:101B40002046FFF701F928B140206065012084F8A4
:101B50003500A8E7206845612046FFF7DBF8064618
:101B600094F85C103F208840B06000206065012040
:101B700084F83500002096E73F8010F02DE9F04111
:101B800004460D4616461F464FF0000800BF94F865
:101B90003400012802D10220BDE8F081012084F840
:101BA000340000BF94F83500012811D1022084F8D8
:101BB0003500002060653B46324629462046FFF747
:101BC00020F92068006840F001002168086006E004
:101BD00000BF002084F8340000BF4FF002084046E8
:101BE000DAE731B5002400F01DF9044600BF00F02B
:101BF00019F9001B00998842F9D338BDF8B502469F
:101C00000B460025002400200021E6E0012606FA0C
:101C100001F51E6806EA0504AC4273D15E68022E27
:101C200002D05E68122E13D1CF0802F1200656F8BA
:101C300027004E07F70E0F26BE40B0434F07FF0E9A
:101C40001E69BE403043CF0802F1200646F8270047
:101C500010684F000326BE40B0431E7906F003060D
:101C60004F00BE40304310605E68012E08D05E68B1
:101C7000022E05D05E68112E02D05E68122E13D19E
:101C800090684F000326BE40B0434F00DE68BE4060
:101C900030439060506801268E40B0431E79C6F3F1
:101CA00000168E4030435060D0684F000326BE407F
:101CB000B0434F009E68BE403043D0605E6806F07F
:101CC0008056B6F1805FA8D100BF00260096454E31
:101CD000366846F48046434F3E603E46366806F41A
:101CE0008046009600BF00BF3F4E8F0856F8270081
:101CF0008E07370F0F26BE40B0433C4EB24202D192
:101D000000262EE068E03A4EB24201D1012628E0DA
:101D1000384EB24201D1022623E0374EB24201D101
:101D200003261EE0354EB24201D1042619E0344E9E
:101D3000B24201D1052614E0324EB24201D106264C
:101D40000FE0314EB24201D107260AE02F4EB242D7
:101D500001D1082605E02E4EB24201D1092600E04D
:101D60000A268F073F0FBE4030431F4E8F0846F8AC
:101D70002700284E3068A0435E6806F48036B6F52A
:101D8000803F00D12043234E3060361D3068A04391
:101D90005E6806F40036B6F5003F00D120431D4EC4
:101DA000361D3060361D3068A0435E6806F480162C
:101DB000B6F5801F00D12043164E08363060361D20
:101DC0003068A0435E6806F40016B6F5001F00D127
:101DD0002043104E0C363060491C1029FFF416AF1A
:101DE000F8BD0000443802400838014000000240BD
:101DF0000004024000080240000C024000100240B3
:101E00000014024000180240001C02400020024062
:101E100000240240003C01400AB1816101E00B0452
:101E2000836170470148006870470000000000208F
:101E300002480068401C014908607047000000200B
:101E400010B50D48006840F400700B490860084662
:101E5000006840F4806008600846006840F48070C4
:101E60000860032000F0C6F8002000F007F800F03A
:101E70004BF8002010BD0000003C024070B588B057
:101E800004460025002600222146362000F074F882
:101E9000362000F064F800BF00200190164800686A
:101EA00040F01000144908600846006800F0100077
:101EB000019000BF00BF02A903A800F0E9F900F0FB
:101EC0000FFA45000D48B5FBF0F0461E0C480D49D1
:101ED000086040F2E7310B48C160466000210161B3
:101EE000816000F05DFE20B9064800F074FE08B085
:101EF00070BD0120FBE700004038024040420F0067
:101F0000001000403044002010B5032000F072F8AB
:101F1000002211466FF00B0000F02EF8002211464F
:101F20006FF00A0000F028F8002211466FF0090057
:101F300000F022F800221146501F00F01DF8002288
:101F40001146101F00F018F800221146901E00F0F4
:101F500013F800221146501E00F00EF810BD00BF0D
:101F600000F01F02012191404209920002F1E0229B
:101F7000C2F8001100BF70472DE9F05F80460D46A2
:101F80001646002702F006FA074639462A46334627
:101F900001F00700C0F1070ABAF1040F02D94FF0AF
:101FA000040A01E0C0F1070AD14600F1040ABAF1BF
:101FB000070F02D24FF0000A01E0A0F1030AD44655
:101FC0004FF0010A0AFA09FAAAF1010A0AEA020A1A
:101FD0000AFA0CFA4FF0010B0BFA0CFBABF1010BF8
:101FE0000BEA030B4AEA0B042146404602F0DAF9F9
:101FF000BDE8F09F00BF00F00702064B19684FF6DE
:10200000FF031940044B0B4343EA0221014B1960C3
:1020100000BF70470CED00E00000FA0538B5002461
:1020200000BF002000902348006840F08050214904
:1020300008600846006800F08050009000BF00BFB4
:102040000120010491FAA1F1B1FA81F11A4A42F892
:102050002100FFF7E7FE044607E0FFF7E3FE001B61
:10206000B0F57A7F01D9032038BD1448406800F4E8
:102070008030B0F5803FF0D10120410491FAA1F108
:10208000B1FA81F10C4A42F82100FFF7CBFE044679
:1020900007E0FFF7C7FE001BB0F57A7F01D90320E8
:1020A000E2E70648406800F40030B0F5003FF0D1A8
:1020B0000020D9E74038024000000E420070004086
:1020C00070B504460D4600266D48006800F00F000C
:1020D000A84209D26A490D700846006800F00F0056
:1020E000A84201D0012070BD207800F00200022833
:1020F00007D16448006820F0F000A16808436149F6
:102100000860207800F00100002877D0606801287E
:1021100007D15C4808380068C0F34040B8B90120D6
:10212000E1E76068022802D06068032807D15548BB
:1021300008380068C0F3406048B90120D3E751482F
:1021400008380068C0F3400008B90120CBE74D48CB
:10215000006820F00300616808434A490860FFF7FF
:1021600061FE06466068012810D108E0FFF75AFEBC
:10217000801B41F28831884201D90320B3E74148EE
:10218000006800F00C000428F0D137E060680228F5
:1021900010D108E0FFF746FE801B41F288318842EB
:1021A00001D903209FE73748006800F00C00082899
:1021B000F0D123E06068032810D108E0FFF732FE79
:1021C000801B41F28831884201D903208BE72D48DA
:1021D000006800F00C000C28F0D10FE008E0FFF7D9
:1021E00021FE801B41F28831884201D903207AE721
:1021F0002448006800F00C000028F0D12048006856
:1022000000F00F00A84209D91D490D70084600686A
:1022100000F00F00A84201D0012064E7207800F010
:102220000400042807D11748006820F4E050E16852
:10223000084314490860207800F00800082808D1F5
:102240001048006820F46040216940EAC1000D494F
:10225000086000F071F80B49096801F0F001F02204
:1022600092FAA2F2B2FA82F2D140074A515CC84017
:10227000064908600020FFF701FE002033E7000058
:10228000003C0240083802408CA3000804000020F3
:102290000F2202600D4A126802F0030242600B4AEC
:1022A000126802F0F0028260084A126802F4E052FA
:1022B000C260064A126802F46042D2080261044A0F
:1022C000126802F00F020A607047000008380240EE
:1022D000003C0240014800687047000004000020F4
:1022E00000B5FFF7F7FF0749096801F4E0514FF423
:1022F000E05292FAA2F2B2FA82F2D140024A515C62
:10230000C84000BD083802408CA3000800B5FFF7A4
:10231000E1FF0749096801F460414FF4604292FA15
:10232000A2F2B2FA82F2D140024A515CC84000BD2A
:10233000083802408CA3000870B500210022002359
:102340000020274C246804F00C0424B1042C04D091
:10235000082C41D103E0234840E023483EE0204CD4
:10236000241F246804F03F011D4C241F246804F43A
:10237000800484B11C4CB4FBF1F5194C241F246873
:1023800047F6C076344096FAA6F6B6FA86F6F440DA
:1023900005FB04F20FE0134CB4FBF1F5104C241FC5
:1023A000246847F6C076344096FAA6F6B6FA86F662
:1023B000F44005FB04F20A4C241F246804F4403462
:1023C0004FF4403595FAA5F5B5FA85F5EC40641C57
:1023D0006300B2FBF3F001E0024800BF00BF70BD34
:1023E000083802400024F400001BB70038B504464A
:1023F0000025207800F00100002848D0DE48006861
:1024000000F00C0004280DD0DB48006800F00C0040
:10241000082811D1D848001F006800F48000B0F5EA
:10242000800F09D1D44808380068C0F3404070B329
:10243000606860BB012038BD2079CF49891F0870D2
:10244000606890B1FFF7EEFC054606E0FFF7EAFC96
:10245000401B642801D90320EDE7C748083800680D
:10246000C0F340400028F1D011E0FFF7DBFC054647
:1024700006E0FFF7D7FC401B642801D90320DAE708
:10248000BD4808380068C0F340400028F1D12078EA
:1024900000F00200022869D1B748006800F00C0083
:1024A00058B1B548006800F00C00082821D1B248A6
:1024B000001F006800F48000D8B9AF4808380068F1
:1024C000C0F3400020B1E068012801D00120B2E74C
:1024D000A9480838006820F0F800F82292FAA2F221
:1024E000B2FA82F2216991400843A3490839086091
:1024F0003CE0E06828B30120A0490860FFF792FCA7
:10250000054606E0FFF78EFC401B022801D9032098
:1025100091E7994808380068C0F340000028F1D0DE
:1025200095480838006820F0F800F82292FAA2F2E4
:10253000B2FA82F22169914008438F490839086054
:1025400014E000208D490860FFF76CFC054606E0AA
:10255000FFF768FC401B022801D903206BE786487F
:1025600008380068C0F340000028F1D1207800F05E
:10257000080008282CD16069A8B1012080490860B2
:10258000FFF750FC054606E0FFF74CFC401B022815
:1025900001D903204FE778486C300068C0F3400051
:1025A0000028F1D014E0002075490860FFF73AFCDC
:1025B000054606E0FFF736FC401B022801D9032040
:1025C00039E76D486C300068C0F340000028F1D155
:1025D000207800F00400042857D100BF00200090AC
:1025E00065483830006840F08050634938310860F1
:1025F0000846006800F08050009000BF00BF6148AE
:10260000006840F480705F490860FFF70BFC0546E6
:1026100006E0FFF707FC401B022801D903200AE768
:102620005848006800F480700028F2D0207A52499F
:1026300068310870A068A0B1FFF7F4FB054608E018
:10264000FFF7F0FB401B41F28831884201D903209B
:10265000F1E6494868300068C0F340000028EFD038
:1026600013E0FFF7DFFB054608E0FFF7DBFB401B4D
:1026700041F28831884201D90320DCE63E486830C7
:102680000068C0F340000028EFD1A069F0B33A48D9
:10269000006800F00C00082869D0A069022850D119
:1026A000002036490866FFF7BDFB054606E0FFF748
:1026B000B9FB401B022801D90320BCE62E4808388C
:1026C0000068C0F340600028F1D1D4E90701084355
:1026D00047F6C07292FAA2F2B2FA82F2616A9140AF
:1026E00008430122A16AC2EB51014FF4403292FA31
:1026F000A2F2B2FA82F2914008434FF0706292FA6D
:10270000A2F2B2FA82F2E16A914000E031E00843BD
:102710001949091F0860012018490866FFF782FB64
:10272000054606E0FFF77EFB401B022801D9032087
:1027300081E6114808380068C0F340600028F1D0F5
:1027400017E000200D490866FFF76CFB054606E020
:10275000FFF768FB401B022801D903206BE60648FF
:1027600008380068C0F340600028F1D101E0012082
:1027700061E600205FE600000838024000004742A2
:10278000800E47420070004010B504460CB901208D
:1027900010BD606A00B900BF0021A16294F8510029
:1027A00028B9002084F85000204600F033F80220B9
:1027B00084F851002068006820F04000216808601B
:1027C000D4E901010843E1680843216908436169CC
:1027D0000843218B01F400710843E1690843216A31
:1027E0000843A16A0843216808600421A06901EA3E
:1027F0001040616A0843216848602068C06920F47D
:1028000000602168C86100206065012084F85100E3
:102810000020BDE710B586B0044612492068884202
:102820001ED100BF002000900F48006840F48010C7
:102830000D4908600846006800F48010009000BF51
:1028400000BF4FF4607001900220029000200390BE
:10285000032004900520059001A90448FFF7CEF954
:1028600006B010BD00500140443802400014024040
:102870002DE9FE4F04460D4616461F46DDF8308012
:102880004FF0000A0020029081464FF0010B0190AA
:1028900000BF94F85000012802D10220BDE8FE8F4D
:1028A000012084F8500000BFFFF7BCFA814694F87D
:1028B00051A060680290BAF1010F0BD00298B0F5F8
:1028C000827F04D1A06810B9BAF1040F02D00220AF
:1028D0000190D2E00DB106B117B901200190CCE012
:1028E00094F85100012802D1052084F851000020FD
:1028F0006065A663E787A7872563E786A7862064C8
:1029000060642068006800F04000402805D020681E
:10291000006840F0400021680860E068B0F5006F92
:1029200043D1606810B1E08E012806D12888216863
:10293000C860AD1CE08E401EE0862FE0BBF1000FAA
:1029400010D0E08E70B12068806800F0020002288C
:1029500008D128882168C860AD1CE08E401EE08642
:102960004FF0000BE08F68B12068806800F0010034
:1029700040B12068C0683080B61CE08F401EE08700
:102980004FF0010B08F1010040B1FFF74BFAA0EB4B
:102990000900404502D3032001906EE0E08E00283C
:1029A000CCD1E08F0028C9D142E0606810B1E08E40
:1029B000012806D12878216808736D1CE08E401E1E
:1029C000E0862FE0BBF1000F10D0E08E70B12068E0
:1029D000806800F00200022808D115F8010B216878
:1029E0000873E08E401EE0864FF0000BE08F68B168
:1029F0002068806800F0010040B12068C06806F8D7
:102A0000010BE08F401EE0874FF0010B08F1010041
:102A100040B1FFF707FAA0EB0900404502D30320BD
:102A200001902AE0E08E0028CCD1E08F0028C9D1A7
:102A30004346012202212046CDF8009001F00EFD10
:102A400010B10320019018E04A464146204601F0AB
:102A5000F1FC20B101200190202060650DE0A0680C
:102A600050B900BF002000902068C0680090206826
:102A70008068009000BF00BF00BF012084F85100B3
:102A800000BF002084F8500000BF019806E704282A
:102A900008D14FF0E021096941F004014FF0E02234
:102AA000116107E04FF0E021096921F004014FF0C6
:102AB000E0221161704770B504462546681EB0F1EA
:102AC000807F01D301200FE0681E4FF0E0214861B4
:102AD0000F214FF0FF3001F065FC00204FF0E021A6
:102AE000886107200861002070BD7047704702466A
:102AF00000BF92F83800012801D102207047012060
:102B000082F8380000BF022082F83900D1E90003C2
:102B100018438B681843CB6818430B6918434B69FB
:102B200018438B69184313685864012082F83900F0
:102B300000BF002082F8380000BF00BFDEE7024679
:102B400000BF92F83800012801D10220704701200F
:102B500082F8380000BF022082F83900106840680F
:102B600020F0700013685860106840680B681843C4
:102B7000136858601068806820F0800013689860BF
:102B8000106880684B68184313689860012082F8C9
:102B9000390000BF002082F8380000BF00BFD5E731
:102BA00010B504460CB9012010BD94F8390028B9BD
:102BB000002084F83800204600F00CF8022084F849
:102BC0003900211D206801F043FD012084F83900FF
:102BD0000020E9E7704701460868C06840F001003E
:102BE0000A68D0600868006840F001000A68106058
:102BF00000207047704710B5044620680069C0F394
:102C00004000D8B12068C068C0F34000B0B16FF098
:102C1000020021680861012020762068806900F0A8
:102C2000030018B12046FFF7E5FF05E0204600F05D
:102C30005FF9204600F084FA0020207620680069C1
:102C4000C0F38000D8B12068C068C0F38000B0B184
:102C50006FF00400216808610220207620688069F6
:102C600000F4407018B12046FFF7C4FF05E020468D
:102C700000F03EF9204600F063FA0020207620683C
:102C80000069C0F3C000D8B12068C068C0F3C000BC
:102C9000B0B16FF008002168086104202076206838
:102CA000C06900F0030018B12046FFF7A3FF05E05C
:102CB000204600F01DF9204600F042FA0020207660
:102CC00020680069C0F30010D8B12068C068C0F364
:102CD0000010B0B16FF01000216808610820207664
:102CE0002068C06900F4407018B12046FFF782FFE9
:102CF00005E0204600F0FCF8204600F021FA002014
:102D000020762068006900F0010058B12068C06892
:102D100000F0010030B16FF0010021680861204629
:102D200000F010FA20680069C0F3C01058B12068A4
:102D3000C068C0F3C01030B16FF080002168086136
:102D40002046FFF7D2FE20680069C0F3801058B11A
:102D50002068C068C0F3801030B16FF04000216877
:102D60000861204600F0FAF920680069C0F34010BD
:102D700058B12068C068C0F3401030B16FF0200037
:102D8000216808612046FFF7B1FE10BD10B586B07E
:102D900004462068B0F1804F1CD140F608400190F5
:102DA000022002900020039004900120059001A9C8
:102DB0004548FEF723FF4FF40040019002200290A7
:102DC0000020039004900120059001A93F48FEF7E0
:102DD00015FF76E03E49206888420DD130200190F1
:102DE000022002900020039004900220059001A987
:102DF0003548FEF703FF64E03649206888421CD15D
:102E00004FF4407001900220029000200390049043
:102E10000220059001A92C48FEF7F0FE4FF4405027
:102E2000019002200290002003900490022005905F
:102E300001A92948FEF7E2FE43E0284920688842BC
:102E40001BD10120019002200290002003900490E9
:102E50000220059001A92248FEF7D0FE4FF4E05071
:102E6000019002200290002003900490022005901F
:102E700001A91C48FEF7C2FE23E01B4920688842D6
:102E80000DD1E420019002200290002003900490D4
:102E90000320059001A91248FEF7B0FE11E0134986
:102EA000206888420DD14FF41070019002200290EA
:102EB0000020039004900920059001A90948FEF71D
:102EC0009DFE06B010BD000000040240000002405C
:102ED0000004004000080040000C0240000C0040CC
:102EE00000200240001C0240000401400018004085
:102EF000704770B504460D46164600BF94F838007A
:102F0000012801D1022070BD012084F8380000BFE3
:102F1000022084F8390036B1042E1BD0082E31D09F
:102F20000C2E5ED145E02946206801F003FC2068A4
:102F3000806940F00800216888612068806920F07D
:102F40000400216888612068806929690843216834
:102F5000886147E02946206801F024FC20688069E8
:102F600040F40060216888612068806920F48060F6
:102F70002168886120688069296940EA0120216808
:102F800088612FE02946206801F048FC2068C0696C
:102F900040F008002168C8612068C06920F0040082
:102FA0002168C8612068C069296908432168C8612F
:102FB00018E02946206801F06DFC2068C06940F4E3
:102FC00000602168C8612068C06920F480602168C1
:102FD000C8612068C069296940EA01202168C86188
:102FE00000E000BF00BF012084F8390000BF0020CE
:102FF00084F8380000BF00BF85E710B504460CB95F
:10300000012010BD94F8390028B9002084F8380058
:10301000204600F00DF8022084F83900211D2068B8
:1030200001F016FB012084F839000020E9E70000D8
:1030300008B50168B1F1804F0FD100BF00210091A8
:103040003949096841F00101374A116011460968A0
:1030500001F00101009100BF65E0344A016891422E
:103060000FD100BF002100912F49096841F00201F2
:103070002D4A11601146096801F00201009100BF5C
:1030800051E02B4A016891420FD100BF002100910D
:103090002549096841F00401234A11601146096875
:1030A00001F00401009100BF3DE0224A0168914215
:1030B0000FD100BF002100911B49096841F00801B0
:1030C000194A11601146096801F00801009100BF1A
:1030D00029E0194A0168914211D100BF00210091F5
:1030E0001149091D096841F002010F4A121D1160C2
:1030F0001146096801F00201009100BF13E00F4A78
:10310000016891420FD100BF002100910649096872
:1031100041F04001044A11601146096801F0400184
:10312000009100BF00BF08BD4038024000040040CD
:1031300000080040000C004000040140001800405E
:103140007047000010B5044603492068884201D149
:10315000FEF76EFE10BD0000001000407047704783
:103160002DE9F0470446206805682068C668206895
:1031700047694FF00008C14605F00F08B8F1000F8D
:103180000AD105F0200038B106F0200020B1204619
:1031900001F0EEFBBDE8F087B8F1000F6DD007F04D
:1031A000010018B906F49070002866D005F00100FF
:1031B00030B106F4807018B1E06B40F00100E063BC
:1031C00005F0040030B107F0010018B1E06B40F0E9
:1031D0000200E06305F0020030B107F0010018B111
:1031E000E06B40F00400E06305F0080030B107F048
:1031F000010018B1E06B40F00800E063E06B68B3D9
:1032000005F0200028B106F0200010B1204601F0A2
:10321000AFFB20684069C0F38019E06B00F0080044
:1032200010B9B9F1000F22D0204601F081FB2068CF
:10323000406900F04000B0B12068406920F04000D3
:1032400021684861606B50B11748616B0865606B1D
:10325000FEF7E7FA10B1606B016D88470CE020467D
:10326000FFF77DFF08E02046FFF779FF04E02046E6
:10327000FFF775FF0020E0638CE705F0800030B1B8
:1032800006F0800018B1204601F074FD82E705F0D9
:10329000400030B106F0400018B1204601F058FB64
:1032A00078E700BF76E700001D49000810B5044626
:1032B0000CB9012010BDA06900B100E000BF94F876
:1032C000390028B9002084F83800204600F028F89A
:1032D000242084F839002068C06820F40050216858
:1032E000C860204601F092FB2068006920F49040FD
:1032F000216808612068406920F02A00216848613F
:103300002068C06840F400502168C8600020E06375
:10331000202084F8390084F83A000020CAE7000031
:1033200010B586B004463C492068884245D100BFAC
:10333000002000903948006840F0100037490860CC
:103340000846006800F01000009000BF00BFC020D9
:103350000190022002900120039003200490072096
:10336000059001A92E48FEF749FC2E482E49086019
:103370004FF00060486000212B488160C1604FF42D
:10338000806101610021416181614FF48071C161FF
:10339000002101624162FEF77DFB08B1FDF748FDA7
:1033A00000BF21486063846300BF002211462520CE
:1033B000FEF7E2FD2520FEF7D2FD1C492068884279
:1033C00027D100BF002000901448001F006840F083
:1033D00000401249091F08600846006800F00040DC
:1033E000009000BF00BF0320019002200290002047
:1033F0000390032004900820059001A90C48FEF7D3
:10340000FDFB002206215320FEF7B6FD5320FEF7F8
:10341000A6FD06B010BD0000001001404438024077
:10342000000402404064024028410020007C00402B
:103430000010024010B5034693F83A00202829D125
:1034400001B10AB9012010BD00BF93F8380001286E
:1034500001D10220F7E7012083F8380000BF99620C
:103460009A85DA850020D863222083F83A0000BFCD
:10347000002083F8380000BF1868406940F0010060
:103480001C6860611868C06840F490701C68E06057
:103490000020D8E70220D6E738B504463049206836
:1034A00088425CD12F48007818B92F480078A528A9
:1034B00017D12C480078012803D12B4800781E280A
:1034C0000FD128480078052803D127480078022822
:1034D00007D124480078062809D12348007803281A
:1034E00005D00020214908701E49087032E01E48AE
:1034F00001781C4802780078401C1A4B18701C4850
:103500008154184600781E2819DB1848007816499F
:10351000097888420ED117221549C91D1548FCF7B4
:1035200037FF02236A4613491348006806F0CCFBB4
:10353000054600BF00200D4908700A490870094877
:103540000078072806DD094800780749097808440B
:1035500006490870012204490848FFF76BFF38BD8F
:10356000007C00402A0100202801002029010020C1
:10357000074F0020F04E002024010020E8400020EA
:103580002DE9F84304460D4616461F464FF0000944
:1035900094F8390020285CD105B116B90120BDE8A6
:1035A000F88300BF94F83800012801D10220F6E723
:1035B000012084F8380000BF0020E063212084F857
:1035C0003900FEF72FFC8146A684E6842BE0E08CD0
:1035D000401EE084A068B0F5805F16D14B46002203
:1035E00080212046009701F0F9FB08B10320D6E7BF
:1035F000A846B8F80000C0F30800216848602069B8
:1036000008B9AD1C0FE06D1C0DE04B460022802177
:103610002046009701F0E2FB08B10320BFE715F850
:10362000010B21684860E08C0028D0D14B46002275
:1036300040212046009701F0D1FB08B10320AEE7FE
:10364000202084F8390000BF002084F8380000BF33
:10365000A5E70220A3E7704700BFFEE710B52DEDF8
:10366000028B3B4800683B4908603948C0683A49CA
:103670000860084690ED000ADFED380AB4EEE00A73
:10368000F1EE10FA02DD9FED350A02E0324890EDCE
:10369000000A314880ED000A90ED000AF3EE0E0AB0
:1036A000B4EEE00AF1EE10FA02D2B3EE0E0A02E036
:1036B000294890ED000A284880ED000A2548D0ED01
:1036C000000A9FED271A80EE810ADFED260A20EE20
:1036D000200AB0EE408A2448B0F8CA0000EE100A72
:1036E000B8EE400A2048D0ED340AF8EEE00A9FED2B
:1036F0001D1A00EE810ADFED1D0A80EE201AF0EEA1
:10370000418AF0EE480AB0EE680A194804F044FF16
:103710001148D0ED000A9FED121A80EE810ADFED0C
:10372000110A20EE200AB0EE408A0F48B0F8FA00E5
:1037300000EE900AF8EE600AB0EE600AF0EE480A79
:103740000B48CC3004F028FFBDEC028B10BD00000C
:10375000D44300207C000020800000200000524361
:103760000000B44300F8FF4544450020000010422B
:10377000704B002010B52DED028B514890ED000AE2
:10378000504880ED000A504890ED000A4F4880ED07
:10379000000A4F48406800EE100A9FED4E1AC0EE36
:1037A000010A9FED4D0A20EE800A454880ED000A8F
:1037B0004748806800EE100A9FED461AC0EE010AE5
:1037C0009FED460A20EE800A3F4880ED000A3C4803
:1037D00090ED000ADFED420AB4EEE00AF1EE10FAD5
:1037E00002DD9FED3F0A02E0354890ED000A3448C3
:1037F00080ED000A90ED000AB5EEC00AF1EE10FA75
:1038000002D29FED380A02E02D4890ED000A2C48C4
:1038100080ED000A2C4890ED000ADFED310AB4EE8D
:10382000E00AF1EE10FA02DD9FED2D0A02E02648D3
:1038300090ED000A244880ED000A90ED000AB5EEF4
:10384000C00AF1EE10FA02D29FED260A02E01E48ED
:1038500090ED000A1C4880ED000A194890ED000A1E
:103860001848D0ED000A30EE600ADFED1F0A80EE46
:10387000201AB0EE418AF0EE480A114890ED000A95
:1038800040F20911194802F0FDFE0F4890ED000AC0
:103890000E48D0ED000A30EE600ADFED130A80EE2C
:1038A000201AB0EE418AF0EE480A074890ED000A6F
:1038B0004FF485710D4802F0E5FEBDEC028B10BDA2
:1038C000080100200C01002000010020040100205C
:1038D000D443002000003443C3F54840C3F548C03A
:1038E0006666064000000000022B073DC44400202D
:1038F00002E0052004F01AFEFBE7000010B52DEDF4
:10390000028B9F48008A00EE100AB8EE400ADFEDF5
:103910009D0AB4EE600AF1EE10FA00D100BF98489B
:10392000008A00EE100AB8EE400ADFED960AB4EE07
:10393000600AF1EE10FA29D19148408A00EE100A8F
:10394000B8EE400ADFED8F0AB4EE600AF1EE10FA2D
:103950001CD08B48408A00EE100AB8EE400AB5EE43
:10396000C00AF1EE10FA11D0874890ED000AF0EE8F
:10397000000A30EE600A80ED000A844890ED000AEB
:10398000F0EE000A30EE600A80ED000A7C48008A02
:1039900000EE100AB8EE400AB5EEC00AF1EE10FAD9
:1039A00029D17748408A00EE100AB8EE400ADFEDD0
:1039B000750AB4EE600AF1EE10FA1CD07048408A25
:1039C00000EE100AB8EE400AB5EEC00AF1EE10FAA9
:1039D00011D06D4890ED000AF0EE000A30EE200A9A
:1039E00080ED000A694890ED000AF0EE000A30EE22
:1039F000200A80ED000A6248408A00EE100AB8EE04
:103A0000400AB5EEC00AF1EE10FA29D15C48008AEE
:103A100000EE100AB8EE400ADFED5A0AB4EE600A72
:103A2000F1EE10FA1CD05648008A00EE100AB8EEEB
:103A3000400AB5EEC00AF1EE10FA11D0524890EDEE
:103A4000000AF0EE000A30EE600A80ED000A4F48EE
:103A500090ED000AF0EE000A30EE200A80ED000A38
:103A60004748408A00EE100AB8EE400ADFED450AEA
:103A7000B4EE600AF1EE10FA29D14148008A00EE56
:103A8000100AB8EE400ADFED3F0AB4EE600AF1EE2C
:103A900010FA1CD03A48008A00EE100AB8EE400A2C
:103AA000B5EEC00AF1EE10FA11D0374890ED000AD9
:103AB000F0EE000A30EE200A80ED000A334890ED67
:103AC000000AF0EE000A30EE600A80ED000A2E488F
:103AD00090ED000ADFED2E0A80EE201A9FED2D0AF0
:103AE00021EE000AB0EE408A2B48B0F82A0100EE21
:103AF000100AB8EE400A2848D0ED4C0AF8EEE00A69
:103B00009FED241A00EE810ADFED240A80EE201AD0
:103B1000F0EE418AF0EE480AB0EE680A204804F060
:103B20003BFD1A4890ED000ADFED190A80EE201ADD
:103B30009FED180A21EE000AB0EE408A1648B0F850
:103B40005A0100EE100AB8EE400A1348D0ED580AA8
:103B5000F8EEE00A9FED0F1A00EE810ADFED0F0A82
:103B600080EE201AF0EE418AF0EE480AB0EE680AC4
:103B70000B48CC3004F010FDBDEC028B10BD0000F2
:103B8000D443002000F07F45F8000020FC00002016
:103B90000000B44300F8FF454445002000001042F7
:103BA000084D002002E0052004F0C0FCFBE7000007
:103BB00010B50E480E4908600520486000210C48E9
:103BC0008160C1604FF40031016149014161002110
:103BD00081610121C1610021016241628162C16292
:103BE000FDF7A6FA08B1FDF723F910BD0064004007
:103BF000C444002010B50F480F49086005204860F4
:103C000000210D4881604FF04071C1604FF40031D8
:103C1000016149014161002181610121C1610021EE
:103C2000016241628162C162FDF782FA08B1FDF76B
:103C3000FFF810BD006800400445002008B500BF33
:103C4000002000901E48006840F400101C490860E5
:103C50000846006800F40010009000BF00BF00BFDD
:103C6000002000900846006840F480000860084684
:103C7000006800F48000009000BF00BF0022052112
:103C80000C20FEF779F90C20FEF769F900220521D6
:103C90001020FEF771F91020FEF761F900220521CE
:103CA0003920FEF769F93920FEF759F9002205217C
:103CB0003A20FEF761F93A20FEF751F908BD0000FD
:103CC0003038024000B5B3B03F4804F0F7FB0021A4
:103CD0003D48FDF7A7FB14223C492EA8FCF758FBF2
:103CE00000212EA804F03BFC394908601422374912
:103CF000143129A8FCF74CFB002129A804F02FFC63
:103D00003349086014223149283124A8FCF740FBCC
:103D1000002124A804F023FC2D49086014222B491B
:103D20003C311FA8FCF734FB00211FA804F017FC4E
:103D3000274908601422254950311AA8FCF728FBAE
:103D400000211AA804F00BFC2149086014221F4925
:103D5000643115A8FCF71CFB002115A804F0FFFB3B
:103D60001B49086014221949783110A8FCF710FB90
:103D7000002110A804F0F3FB154908601422134930
:103D80008C310BA8FCF704FB00210BA804F0E7FB27
:103D90000F49086014220D49A03106A8FCF7F8FA73
:103DA000002106A804F0DBFB09490860142207493A
:103DB000B43101A8FCF7ECFA002101A804F0CFFB14
:103DC0000349086033B000BDC44400209CA3000830
:103DD0006800002000B587B000BF00200190864831
:103DE000006840F00100844908600846006800F05F
:103DF0000100019000BF00BF00BF002001900846F5
:103E0000006840F0020008600846006800F0020008
:103E1000019000BF00BF00BF00200190084600686D
:103E200040F0080008600846006800F008000190B3
:103E300000BF00BF00BF002001900846006840F0AE
:103E4000100008600846006800F01000019000BFF4
:103E500000BF00BF002001900846006840F020002D
:103E600008600846006800F02000019000BF00BF15
:103E700000BF002001900846006840F04000086044
:103E80000846006800F04000019000BF00BF00BF7E
:103E9000002001900846006840F080000860084655
:103EA000006800F08000019000BF00BF00BF00204C
:103EB00001900846006840F4807008600846006879
:103EC00000F48070019000BF00BF002288214B48A1
:103ED000FDF7A2FF012204214848FDF79DFF0122C2
:103EE00051034748FDF798FF012244F2400145483D
:103EF000FDF792FF012220214348FDF78DFF4FF48B
:103F0000806002900120039000200490059002A997
:103F10003C48FDF773FE4FF40070029001200390BF
:103F200000200490059002A93848FDF767FE8C2018
:103F300002900120039000200490059002A92F48D0
:103F4000FDF75CFE022002903148039001200490AE
:103F500002A92A48FDF752FE4FF4005002900120BA
:103F6000039000200490059002A92548FDF746FE25
:103F70008420029000200390049002A92548FDF7B8
:103F80003DFE44F240000290012003900020049086
:103F9000059002A91B48FDF731FE20200290012068
:103FA000039000200490059002A91748FDF726FE13
:103FB0000D200290184803900020049002A9174891
:103FC000FDF71CFE4FF400600290012003900020DA
:103FD0000490059002A90948FDF710FE4FF48040B7
:103FE00002900120039000200490059002A905484A
:103FF000FDF704FE07B000BD30380240001002405B
:104000000018024000140240000402400020024058
:1040100000002110000C02400000111000000240BE
:1040200010B50E480E4908604FF4827048600021B8
:104030000B488160C160016141614FF40071816191
:104040003021C16100210162416281620A21C162A5
:10405000FEF79AFB08B1FCF7EBFE10BD00500140E3
:104060006C44002000B589B02448254908605920D7
:10407000486000212248816040F2CF71C160002178
:104080000161FEF7BAFF08B1FCF7D2FE00200790ED
:10409000089007A91A48FEF752FD08B1FCF7C8FEC0
:1040A000602000904FF47A700190002002900490FC
:1040B000002269461248FEF71CFF08B1FCF7B8FE63
:1040C000042269460E48FEF714FF08B1FCF7B0FE63
:1040D000082269460A48FEF70CFF08B1FCF7A8FE63
:1040E0000C2269460648FEF704FF08B1FCF7A0FE63
:1040F0000348FEF74BFE09B000BD00000008004079
:10410000F83E002000B589B02548264908605920AE
:1041100048600021234881604FF4FA61C1600021AA
:104120000161FEF76AFF08B1FCF782FE00200790EC
:10413000089007A91B48FEF702FD08B1FCF778FEBE
:10414000602000904FF47A7001900020029004905B
:10415000002269461348FEF7CCFE08B1FCF768FE62
:10416000042269460F48FEF7C4FE08B1FCF760FE62
:1041700000200190082269460A48FEF7BAFE08B1FD
:10418000FCF756FE0C2269460648FEF7B2FE08B15F
:10419000FCF74EFE0348FEF7F9FD09B000BD000034
:1041A000000C0040343F002000B591B000200F907B
:1041B00010901C2108A8FCF704F91C2101A8FCF7A9
:1041C00000F9374837490860B32048600021354876
:1041D000816044F61F61C160002101614161FEF709
:1041E0000CFF08B1FCF724FE00200F9010900FA9DF
:1041F0002C48FEF7A4FC08B1FCF71AFE60200890DA
:104200004FF47A70099000200A900B900C900D905A
:104210000E9001A92348FEF76AFC08B1FCF708FEDE
:1042200060200890002009900A900B900C900D904F
:104230000E90002208A91B48FEF75BFE08B1FCF7B0
:10424000F7FD042208A91748FEF753FE08B1FCF752
:10425000EFFD082208A91348FEF74BFE08B1FCF752
:10426000E7FD0C2208A90F48FEF743FE08B1FCF752
:10427000DFFD0020019002900390049005904FF420
:10428000005006900020079001A90648FEF72FFC79
:1042900008B1FCF7CDFD0348FEF778FD11B000BD75
:1042A00000040140703F002010B50B480B49086026
:1042B0004FF4E1304860002108488160C16001612D
:1042C0000C21416100218161C161FEF7EFFF08B15E
:1042D000FCF7AEFD10BD0000007C0040E84000206F
:1042E00010B50B480B4908600B484860002109488D
:1042F0008160C1604FF4806101610C214161002146
:104300008161C161FEF7D2FF08B1FCF791FD10BDDC
:1043100000100140E83F0020A086010010B50B48C6
:104320000B4908604FF4E130486000210848816083
:10433000C16001610C21416100218161C161FEF711
:10434000B5FF08B1FCF774FD10BD00000048004047
:104350006840002010B50B480B4908604FF4E1306D
:104360004860002108488160C16001610C21416101
:1043700000218161C161FEF799FF08B1FCF758FD8A
:1043800010BD000000140140A840002000BFFEE75F
:104390007047000002480068C0F302207047000028
:1043A0000CED00E010B5002807DA0A07140E054AE4
:1043B00000F00F031B1FD45403E00A07130E024A38
:1043C000135410BD18ED00E000E400E02DE9F041C9
:1043D0002DED048B04460D4616461F46B0EE408A6E
:1043E000F0EE608AB0EE419A0A4844F8C40F0A48D9
:1043F000606054F8C4C9B0EE491AF0EE680AB0EE35
:10440000480A3B46324629462046E047BDEC048B2D
:10441000BDE8F081F98700081188000810B5002276
:104420001721012005F0ECFA0149086010BD0000D9
:1044300024010020F8B504460D4616462B460022FE
:1044400080212046009600F009F828B1606D40F008
:10445000200060650320F8BD0020FCE72DE9F04155
:1044600004460E4617461D46DDF818803FE0681CDE
:10447000E0B32DB1FDF7D6FCA0EB0800A84236D37F
:104480002068406820F0E000216848606068B0F56E
:10449000827F0DD1A068B0F5004F03D0A068B0F5C1
:1044A000806F05D12068006820F040002168086016
:1044B000A06AB0F5005F0ED100BF206800684DF61D
:1044C000FF710840216808602068006840F40050CF
:1044D0002168086000BF012084F8510000BF00205F
:1044E00084F8500000BF0320BDE8F081FFE720689A
:1044F00080683040B04201D1012000E00020B84285
:10450000B5D10020F0E710B504F021F810BD00008F
:1045100010B592B000BF002000902E48006840F017
:1045200080502C4908600846006800F080500090D8
:1045300000BF00BF00BF002000902748006840F483
:104540004040254908600846006800F4404000905B
:1045500000BF00BF01200690079002200C9041058B
:104560000D9106210E91B4210F9102211091042189
:10457000119106A8FDF73AFF08B1FCF759FCFDF7C9
:104580004DFD08B1FCF754FC0F2001900220029071
:10459000002003904FF4A05004904FF480500590F9
:1045A000052101A8FDF78CFD08B1FCF741FCFDF7E2
:1045B00091FE4FF47A71B0FBF1F42046FEF77BFADE
:1045C0000420FEF764FA00220F21501EFDF7D4FCF0
:1045D00012B010BD4038024000700040144800681E
:1045E00040F47000124908601248006840F0010071
:1045F0001049086000200F49083108600D48006824
:104600000D4908400B4908600C48091D0860081F47
:10461000006820F48020091F0860002005490C3143
:1046200008604FF000600249803908607047000060
:1046300088ED00E000380240FFFFF6FE1030002455
:1046400010B50248FEF7D7FA10BD00003044002034
:10465000002202682C4B98420ED0B0F1804F0BD054
:104660002A4B984208D02A4B984205D0294B9842B1
:1046700002D0294B984201D1012300E000231BB155
:1046800022F070024B681A431F4B984220D0B0F1C1
:10469000804F1DD01D4B98421AD01D4B984217D009
:1046A0001C4B984214D01C4B984211D01B4B984283
:1046B0000ED01B4B98420BD01A4B984208D01A4B85
:1046C000984205D0194B984202D0194B984201D11B
:1046D000012300E000231BB122F44072CB681A438F
:1046E00002608B68C3620B688362074B984202D0FA
:1046F000094B984201D1012300E000230BB10B6963
:10470000036301234361704700000140000400403F
:1047100000080040000C004000040140004001403F
:10472000004401400048014000180040001C0040C7
:104730000020004030B5002400220023056A25F047
:1047400001050562026A4368846924F0700424F05C
:1047500003040D682C4322F002028D682A430F4D9A
:10476000A84202D00E4DA84201D1012500E000254B
:104770006DB122F00802CD682A4322F0040223F42E
:10478000807323F400734D692B438D692B43436081
:1047900084614D684563026230BD00000000014045
:1047A0000004014030B5002400220023056A25F0F2
:1047B00010050562026A4368846924F4E04424F425
:1047C00040740D6844EA052422F020028D6842EA14
:1047D0000512104DA84202D00F4DA84201D101256B
:1047E00000E0002585B122F08002CD6842EA051282
:1047F00022F0400223F4806323F400634D6943EA0E
:1048000085038D6943EA8503436084614D68856350
:10481000026230BD000001400004014030B50024B8
:1048200000220023056A25F480750562026A436848
:10483000C46924F0700424F003040D682C4322F4AE
:1048400000728D6842EA0522104DA84202D0104D38
:10485000A84201D1012500E0002585B122F40062C3
:10486000CD6842EA052222F4806223F4805323F4C7
:1048700000534D6943EA05138D6943EA051343600C
:10488000C4614D68C563026230BD00000000014094
:104890000004014030B5002200230024056A25F4FD
:1048A00080550562036A4468C26922F4E04222F43A
:1048B00040720D6842EA052223F400538D6843EAF2
:1048C00005330A4DA84202D0094DA84201D1012565
:1048D00000E0002525B124F480444D6944EA8514A4
:1048E0004460C2614D680564036230BD0000014050
:1048F0000004014010B50248FEF732FC10BD000074
:10490000E840002010B5012202490348FEF792FD5D
:1049100010BD000028010020E840002070B50546C9
:10492000AC6B0020E085E0842046FEF718FC70BDEB
:104930000168C96821F490710268D1600168496911
:1049400021F0010102685161202180F83A1070477E
:1049500010B504462068C06820F040002168C86097
:10496000202084F839002046FEF775FE002010BD97
:1049700070B5044694F83A00222844D1A068B0F5F6
:10498000805F13D1A56A206940B920684068C0F3F0
:1049900008002880A06A801CA06219E02068406896
:1049A000C0B22880A06A401CA06211E0206938B91A
:1049B00020684068C1B2A26A501CA062117007E072
:1049C0002068406800F07F01A26A501CA06211704C
:1049D000E08D401E80B2E08598B92068C06820F460
:1049E00090702168C8602068406920F0010021684B
:1049F0004861202084F83A002046FEF74DFD002053
:104A000070BD0020FCE70220FAE700002DE9F0412C
:104A1000044600252068056925F44055E0680543F3
:104A2000206805612068C56849F20C6085432169EA
:104A3000A068084361690843E169084305432068A9
:104A4000C5602068456925F44075A0690543206864
:104A50004561E069B0F5004F7ED1C44920688842C5
:104A600003D0C349206888425DD1FDF74FFC00EBBD
:104A7000C00101EB001061684900B0FBF1F0642156
:104A8000B0FBF1F00601FDF741FC00EBC00101EBCA
:104A9000001061684900B0FBF1F7FDF737FC00EB4F
:104AA000C00101EB001061684900B0FBF1F0642126
:104AB000B0FBF1F000EBC00101EB0010A7EB8000B0
:104AC000322101EBC0006421B0FBF1F000F0F800EE
:104AD00006EB4006FDF71AFC00EBC00101EB0010ED
:104AE00061684900B0FBF1F7FDF710FC00EBC00175
:104AF00001EB001061684900B0FBF1F06421B0FBEC
:104B0000F1F000EBC00101EB0010A7EB80003221B7
:104B100001EBC0006421B0FBF1F000F0070030446D
:104B20002168886020E1FDF7DBFB00EBC00101EBB1
:104B3000001061684900B0FBF1F06421B0FBF1F0B6
:104B40000601FDF7CDFB00EBC00101EB0010616831
:104B50004900B0FBF1F700E045E0FDF7C1FB00EBD9
:104B6000C00101EB001061684900B0FBF1F0642165
:104B7000B0FBF1F000EBC00101EB0010A7EB8000EF
:104B8000322101EBC0006421B0FBF1F000F0F8002D
:104B900006EB4006FDF7A4FB00EBC00101EB0010A3
:104BA00061684900B0FBF1F7FDF79AFB00EBC0012B
:104BB00001EB001061684900B0FBF1F06421B0FB2B
:104BC000F1F000EBC00101EB0010A7EB80003221F7
:104BD00001EBC0006421B0FBF1F000F007003044AD
:104BE00021688860C0E061492068884203D060493C
:104BF000206888425CD1FDF789FB00EBC00101EB26
:104C0000001061688900B0FBF1F6FDF77FFB00EB57
:104C1000C00101EB001061688900B0FBF1F0642174
:104C2000B0FBF1F000EBC00101EB0010A6EB80003F
:104C3000322101EB00106421B0FBF1F000F0F0062E
:104C4000FDF764FB00EBC00101EB00106168890017
:104C5000B0FBF1F06421B0FBF1F006EB0016FDF7BC
:104C600055FB00EBC00101EB001061688900B0FB4F
:104C7000F1F7FDF74BFB00EBC00101EB00106168A1
:104C80008900B0FBF1F06421B0FBF1F000EBC00152
:104C900001EB0010A7EB8000322101EB0010642132
:104CA000B0FBF1F000F00F003044216888605BE059
:104CB000FDF716FB00EBC00101EB001061688900F5
:104CC000B0FBF1F6FDF70CFB00EBC00101EB0010AF
:104CD00061688900B0FBF1F06421B0FBF1F000EBFA
:104CE000C00101EB0010A6EB8000322101EB0010A7
:104CF0006421B0FBF1F000F0F006FDF7F1FA00EBF3
:104D0000C00101EB001061688900B0FBF1F0642183
:104D1000B0FBF1F006EB0016FDF7E2FA00EBC00184
:104D200001EB001061688900B0FBF1F7FDF7D8FADC
:104D300000EBC00101EB001061688900B0FBF1F0ED
:104D40006421B0FBF1F000EBC00101EB0010A7EB18
:104D50008000322101EB00106421B0FBF1F000F083
:104D60000F00304421688860BDE8F08100100140E8
:104D700000140140014691F8390021282CD188689F
:104D8000B0F5805F0FD10A6A1088C0F308000B6885
:104D90005860086918B9086A801C086209E0086A46
:104DA000401C086205E00B6A581C086218780B6802
:104DB0005860C88C401E80B2C88458B90868C06862
:104DC00020F080000B68D8600868C06840F04000A0
:104DD0000B68D860002070470220FCE72DE9F04105
:104DE00004460D4617469846069E21E0701CF8B111
:104DF0002EB1FDF717F8A0EB0800B04218D92068D3
:104E0000C06820F4D0702168C8602068406920F034
:104E1000010021684861202084F8390084F83A00B4
:104E200000BF002084F8380000BF0320BDE8F081F7
:104E3000206800682840A84201D1012000E000203D
:104E4000B842D3D00020F1E710B5034804F013FABC
:104E50000148FEF785F910BDE83F002010B5024873
:104E6000FEF77EF910BD00002840002010B5024872
:104E7000FEF776F910BD00006840002010B502482A
:104E8000FEF76EF910BD0000A840002000BFFEE74D
:104E900010B52DED088B0446B0EE408AF0EE608A26
:104EA000F0EE41BA9FED580AB0EE409A9FED570AD6
:104EB000F0EE409A9FED560AB0EE40AA9FED550ADB
:104EC000F0EE40AA9FED530AB0EE40BA84ED088A96
:104ED000C4ED058A38EEC80A84ED0B0A94ED2C0A5D
:104EE000B5EEC00AF1EE10FA19D094ED0B0AB5EE4A
:104EF000C00AF1EE10FA02DD94ED0B0A03E094ED26
:104F00000B0AB1EE400AD4ED2C0AB4EEE00AF1EE41
:104F100010FA04DD9FED400BBDEC088B10BD94ED45
:104F20002D0AB5EEC00AF1EE10FA17D094ED0B0A77
:104F3000B5EEC00AF1EE10FA02DD94ED0B0A03E0C3
:104F400094ED0B0AB1EE400AD4ED2D0AB4EEE00A5E
:104F5000F1EE10FA02D29FED300BDDE794ED0B0A73
:104F600020EE090A84ED230A94ED240AD4ED0B0AFD
:104F700009EEA00A84ED240A94ED0B0AD4ED0A0A86
:104F800030EE600A20EE0A0A84ED250AB0EE6A0AC5
:104F900004F1900001F022FB94ED230AD4ED240AE1
:104FA00030EE200AD4ED250A30EE200A84ED170AEF
:104FB000B0EE4B0A04F15C0001F010FB94ED170A0F
:104FC00084ED100A94ED0A0A84ED090A94ED0B0AA7
:104FD00084ED0A0A94ED070A84ED060A94ED080AA6
:104FE00084ED070A94ED040A84ED030A94ED050AA2
:104FF00084ED040A94ED170A10EE101A0846FBF728
:1050000015FB41EC100B87E700006B446666663FBA
:1050100000C00F4500204B460000000000000000CB
:1050200010B52DED028B8648B0F8EC008A3800EE02
:10503000100AB8EEC00A834880ED000A90ED000A1D
:10504000DFED810A20EE200ADFED800A80EE201AD3
:10505000B0EE418AB0EE480AFBF760F97C4880ED7B
:10506000000A784890ED000ADFED770A20EE200A6A
:10507000DFED760A80EE201AB0EE418AB0EE480AE3
:10508000FBF710F9734880ED000A734800680128A7
:105090007ED1704890ED000A7048D0ED000A20EEF5
:1050A000200A6B48D0ED000A6D4890ED001A00EE22
:1050B000810A6C4880ED000A654890ED000AB1EE67
:1050C000400A6648D0ED000A20EE200A6148D0ED83
:1050D000000A634890ED001A00EE810A624880EDF4
:1050E000000A90ED000AB1EE400A5E48D0ED000AD9
:1050F00030EE200A5D48D0ED000AB7EE001A00EE4F
:10510000810A10EE101A0846FBF790FA584A03C2BB
:10511000554890ED000A5348D0ED000A30EE200AC1
:105120005248D0ED000AB7EE001A00EE810A10EEE8
:10513000101A0846FBF77AFA4D4AC2E902014A48BA
:1051400090ED000AB1EE400A4648D0ED000AF1EEBB
:10515000600A30EE200A4548D0ED000AB7EE001A8A
:1051600000EE810A10EE101A0846FBF75FFA404A7B
:10517000C2E904013C4890ED000A3A48D0ED000A2B
:10518000F1EE600A30EE200A3848D0ED000A00E067
:105190003CE0B7EE001A00EE810A10EE101A084645
:1051A000FBF744FA324AC2E90601002429E03048FC
:1051B00000EBC40090ED001BB0EE410AF0EE610A76
:1051C00051EC100BFBF776FA08EE100A04EB4401E1
:1051D0001B4A02EB0111B1F9001000EE901AF8EE33
:1051E000E00AB0EE600A04EB041101EB4101214A30
:1051F00002EB81009FED201AF0EE480A00F03EF825
:10520000641C042CD3DB0A20FCF7EBFC124800687A
:1052100098B99FED190A174880ED190A9FED160AF3
:1052200080ED4C0A9FED140A80ED7F0A9FED120A73
:1052300080EDB20A0A20FCF7D4FCBDEC028B10BD55
:1052400044450020BC000020DB0F494000003443EF
:10525000AC000020B00000208C000020C400002022
:10526000C0000020B8000020B4000020880000200A
:10527000F0430020404800200000000000B5014637
:10528000F0EE401AB0EE602AB0EE415AB7EE080ACE
:10529000F0EE402A9FED520AB0EE403A9FED510ADF
:1052A000F0EE403A9FED500AB0EE404A9FED4E0AB4
:1052B000F0EE404AC1ED081A81ED052A32EE610A8E
:1052C00081ED0B0A91ED2C0AB5EEC00AF1EE10FA51
:1052D00017D091ED0B0AB5EEC00AF1EE10FA02DD1F
:1052E00091ED0B0A03E091ED0B0AB1EE400AD1ED0E
:1052F0002C0AB4EEE00AF1EE10FA02DD9FED390A55
:1053000000BD91ED2D0AB5EEC00AF1EE10FA17D0EE
:1053100091ED0B0AB5EEC00AF1EE10FA02DD91ED47
:105320000B0A03E091ED0B0AB1EE400AD1ED2D0A14
:10533000B4EEE00AF1EE10FA02D29FED2A0ADFE79E
:1053400091ED0B0A20EE220A81ED290A91ED2A0A3D
:10535000D1ED0B0A03EE200A81ED2A0A91ED0B0A2A
:10536000D1ED0A0A30EE600A20EE230A81ED2B0A05
:10537000B0EE440A01F1A80001F030F991ED290ADC
:10538000D1ED2A0A30EE200AD1ED2B0A30EE200AA8
:1053900081ED190AB0EE640A01F1640001F01EF912
:1053A00091ED190A81ED100A91ED0A0A81ED090AC1
:1053B00091ED0B0A81ED0A0A91ED070A81ED060ACB
:1053C00091ED080A81ED070A91ED040A81ED030AC7
:1053D00091ED050A81ED040A91ED190A90E70000AC
:1053E000CDCCCC3D0000000000606A4610B52DED2C
:1053F000028BF848B0F90400F7490860F548B0F9A5
:105400000600F6490860F348C07E012804D140F642
:10541000C410F349086003E04FF47A70F049086063
:10542000EC48007A02287DD1EE48006801282BD094
:10543000E848407D00EB80004100EB480068E74A07
:10544000126801FB0021E348807D00EB80004000F2
:10545000E54A126800FB1210E4490860DD48C07D8F
:1054600000EB80004000E0490968DB4A126800FB5D
:105470001121D848007E00EB80004000DA4A126813
:1054800000FB0210DA490860D648006801283BD1C9
:10549000D048407D00EB80004000D3490968CF4AE6
:1054A000126800FB1120CB49897D01EB8101490085
:1054B000CD4A126801FB020000EB8000400000EEC4
:1054C000100AB8EEC00ACB4880ED000AC148C07D82
:1054D00000EB80004100C4480068BF4A126801FB2D
:1054E0001021BC48007E00EB80004000BE4A1268DC
:1054F00000FB021000EB8000400000EE100AB8EE46
:10550000C00ABD4880ED000AB948006800EB800081
:105510004000B64A126802EB820200EB4202AD483C
:10552000407E00E0D6E04042AD4B1B685843A94B9B
:105530009B7EAB4C246803FB0400104400EE100A71
:10554000B8EEC00AAD48D0EDE10A30EE200AD0ED49
:10555000190A30EE200A10EE101A0846FBF766F81A
:10556000A74A03C2A248006800EB800040009F4A9F
:105570001268524202EB820200EB42029548407EE2
:105580004042974B1B685843924B9B7E944C246837
:1055900003FB0400104400EE100AB8EEC00A97485E
:1055A000D0EDE10A30EE200AD0ED4C0A30EE200AB0
:1055B00010EE101A0846FBF739F8914AC2E90201C9
:1055C0008B4800686FF009025043884A126802EB6A
:1055D000820200EB42027F48407E4042804B1B68C3
:1055E00058437C4B9B7E7E4C246803FB0400104494
:1055F00000EE100AB8EEC00A8048D0EDE10A30EEA5
:10560000200AD0ED7F0A30EE200A10EE101A08466C
:10561000FBF70CF87A4AC2E90401754800686FF09C
:1056200009025043714A1268524202EB820200EBB7
:1056300042026848407E4042694B1B685843654BB4
:105640009B7E674C246803FB0400104400EE100AA4
:10565000B8EEC00A6948D0EDE10A30EE200AD0ED7C
:10566000B20A30EE200A10EE101A0846FAF7DEFFF2
:10567000634AC2E90601002427E0614800EBC40048
:1056800090ED001BB0EE410AF0EE610A51EC100BF8
:10569000FBF710F808EE100A04EB4401594A02EB3C
:1056A0000111B1F9001000EE901AF8EEE00AB0EE28
:1056B000600A04EB041101EB4101504A02EB810046
:1056C000F0EE480A02F068FF641C042CD5DB0A20C7
:1056D000FCF787FA3F48007A032875D13D48B0F9B6
:1056E0000400322805DB3B48B0F9040010F1320F0A
:1056F00002DD0020374988803648B0F904001428BC
:1057000002DB1420334988803248B0F9040010F1DC
:10571000140F03DC6FF013002E4988802E490968AE
:1057200001EB81014800FAF770FF354A03C22A49AC
:10573000096801EB81014800FAF767FF304AC2E9C6
:1057400002012549096801EB81014800FAF75DFF74
:105750002B4AC2E904012049096801EB8101480094
:10576000FAF753FF264AC2E90601002427E024483D
:1057700000EBC40090ED001BB0EE410AF0EE610AB0
:1057800051EC100BFAF796FF08EE100A04EB4401F7
:105790001C4A02EB0111B1F9001000EE901AF8EE6C
:1057A000E00AB0EE600A04EB041101EB4101134A78
:1057B00002EB8100F0EE480A02F0EEFE641C042CBD
:1057C000D5DB0A20FCF70DFA0248007A012839D10E
:1057D000002432E0B24E0020E0000020E40000206F
:1057E000840000208C0000206C000020D4000020E9
:1057F000D0000020C0000020C4000020404800204D
:10580000F04300204445002004EB44010F4A02EB22
:105810000111B1F9001000EE901AF8EEE00AB0EEB6
:10582000600A04EB041101EB4101094A02EB81001B
:10583000DFED080A02F0B0FE641C042CE4DB0A2051
:10584000FCF7CFF9BDEC028B10BD000044450020F1
:10585000404800200000000010B52DED088B0446E4
:10586000B0EE408AF0EE608AF0EE41BA9FED580A41
:10587000B0EE409A9FED570AF0EE409A9FED550A20
:10588000B0EE40AA9FED540AF0EE40AA9FED520AF6
:10589000B0EE40BA84ED088AC4ED058A38EEC80A35
:1058A00084ED0B0A94ED2C0AB5EEC00AF1EE10FA65
:1058B00019D094ED0B0AB5EEC00AF1EE10FA02DD34
:1058C00094ED0B0A03E094ED0B0AB1EE400AD4ED1F
:1058D0002C0AB4EEE00AF1EE10FA04DD9FED3F0B66
:1058E000BDEC088B10BD94ED2D0AB5EEC00AF1EEAB
:1058F00010FA17D094ED0B0AB5EEC00AF1EE10FACB
:1059000002DD94ED0B0A03E094ED0B0AB1EE400AC0
:10591000D4ED2D0AB4EEE00AF1EE10FA02D29FEDBA
:105920002F0BDDE794ED0B0A20EE090A84ED1A0A2D
:1059300094ED1B0AD4ED0B0A09EEA00A84ED1B0AB4
:1059400094ED0B0AD4ED0A0A30EE600A20EE0A0A42
:1059500084ED1C0AB0EE6A0A04F16C0000F03EFE11
:1059600094ED1A0AD4ED1B0A30EE200AD4ED1C0A7D
:1059700030EE200A84ED150AB0EE4B0A04F1540013
:1059800000F02CFE94ED150A84ED100A94ED0A0A3D
:1059900084ED090A94ED0B0A84ED0A0A94ED070AD6
:1059A00084ED060A94ED080A84ED070A94ED040AD2
:1059B00084ED030A94ED050A84ED040A94ED150ABA
:1059C00010EE101A0846FAF731FE41EC100B87E78B
:1059D00000008242000000000000FA4400000000C5
:1059E0000000000000B50146F0EE401AB0EE602A5B
:1059F000B0EE415A9FED540AF0EE402A9FED530A53
:105A0000B0EE403A9FED520AF0EE403A9FED510A57
:105A1000B0EE404A9FED4F0AF0EE404AC1ED081A41
:105A200081ED052A32EE610A81ED0B0A91ED2C0A17
:105A3000B5EEC00AF1EE10FA17D091ED0B0AB5EEF3
:105A4000C00AF1EE10FA02DD91ED0B0A03E091EDD0
:105A50000B0AB1EE400AD1ED2C0AB4EEE00AF1EEE9
:105A600010FA02DD9FED390A00BD91ED2D0AB5EE69
:105A7000C00AF1EE10FA17D091ED0B0AB5EEC00A8C
:105A8000F1EE10FA02DD91ED0B0A03E091ED0B0A45
:105A9000B1EE400AD1ED2D0AB4EEE00AF1EE10FAB3
:105AA00002D29FED2A0ADFE791ED0B0A20EE220ACF
:105AB00081ED1D0A91ED1E0AD1ED0B0A03EE200ABD
:105AC00081ED1E0A91ED0B0AD1ED0A0A30EE600A53
:105AD00020EE230A81ED1F0AB0EE440A01F178009E
